{"abi":[{"type":"constructor","inputs":[{"name":"_relayer","type":"address","internalType":"address"}],"stateMutability":"nonpayable"},{"type":"receive","stateMutability":"payable"},{"type":"function","name":"AIRDROP_CHANCE","inputs":[],"outputs":[{"name":"","type":"uint256","internalType":"uint256"}],"stateMutability":"view"},{"type":"function","name":"CONCURRENT_THRESHOLD","inputs":[],"outputs":[{"name":"","type":"uint256","internalType":"uint256"}],"stateMutability":"view"},{"type":"function","name":"MAX_AIRDROP_PERCENT","inputs":[],"outputs":[{"name":"","type":"uint256","internalType":"uint256"}],"stateMutability":"view"},{"type":"function","name":"MAX_SESSION_DURATION","inputs":[],"outputs":[{"name":"","type":"uint256","internalType":"uint256"}],"stateMutability":"view"},{"type":"function","name":"MIN_AIRDROP_PERCENT","inputs":[],"outputs":[{"name":"","type":"uint256","internalType":"uint256"}],"stateMutability":"view"},{"type":"function","name":"NET_COST_LARGE","inputs":[],"outputs":[{"name":"","type":"uint256","internalType":"uint256"}],"stateMutability":"view"},{"type":"function","name":"NET_COST_MEDIUM","inputs":[],"outputs":[{"name":"","type":"uint256","internalType":"uint256"}],"stateMutability":"view"},{"type":"function","name":"NET_COST_SMALL","inputs":[],"outputs":[{"name":"","type":"uint256","internalType":"uint256"}],"stateMutability":"view"},{"type":"function","name":"OWNER_FEE_PERCENT","inputs":[],"outputs":[{"name":"","type":"uint256","internalType":"uint256"}],"stateMutability":"view"},{"type":"function","name":"REWARD_DIAMOND","inputs":[],"outputs":[{"name":"","type":"uint256","internalType":"uint256"}],"stateMutability":"view"},{"type":"function","name":"REWARD_DOGE","inputs":[],"outputs":[{"name":"","type":"uint256","internalType":"uint256"}],"stateMutability":"view"},{"type":"function","name":"REWARD_FOX","inputs":[],"outputs":[{"name":"","type":"uint256","internalType":"uint256"}],"stateMutability":"view"},{"type":"function","name":"REWARD_PEPE","inputs":[],"outputs":[{"name":"","type":"uint256","internalType":"uint256"}],"stateMutability":"view"},{"type":"function","name":"REWARD_ROCKET","inputs":[],"outputs":[{"name":"","type":"uint256","internalType":"uint256"}],"stateMutability":"view"},{"type":"function","name":"authorizeSessionKey","inputs":[{"name":"sessionKey","type":"address","internalType":"address"},{"name":"duration","type":"uint256","internalType":"uint256"}],"outputs":[],"stateMutability":"nonpayable"},{"type":"function","name":"blockTxCount","inputs":[{"name":"","type":"uint256","internalType":"uint256"}],"outputs":[{"name":"","type":"uint256","internalType":"uint256"}],"stateMutability":"view"},{"type":"function","name":"depositToPool","inputs":[],"outputs":[],"stateMutability":"payable"},{"type":"function","name":"getBlockTxCount","inputs":[{"name":"blockNumber","type":"uint256","internalType":"uint256"}],"outputs":[{"name":"","type":"uint256","internalType":"uint256"}],"stateMutability":"view"},{"type":"function","name":"getNonce","inputs":[{"name":"user","type":"address","internalType":"address"}],"outputs":[{"name":"","type":"uint256","internalType":"uint256"}],"stateMutability":"view"},{"type":"function","name":"getPoolBalance","inputs":[],"outputs":[{"name":"","type":"uint256","internalType":"uint256"}],"stateMutability":"view"},{"type":"function","name":"getSessionInfo","inputs":[{"name":"sessionKey","type":"address","internalType":"address"}],"outputs":[{"name":"sessionOwner","type":"address","internalType":"address"},{"name":"expiresAt","type":"uint256","internalType":"uint256"},{"name":"isValid","type":"bool","internalType":"bool"}],"stateMutability":"view"},{"type":"function","name":"huntWithSession","inputs":[{"name":"sessionKey","type":"address","internalType":"address"},{"name":"memeId","type":"uint8","internalType":"uint8"},{"name":"netSize","type":"uint8","internalType":"uint8"},{"name":"nonce","type":"uint256","internalType":"uint256"},{"name":"signature","type":"bytes","internalType":"bytes"}],"outputs":[{"name":"success","type":"bool","internalType":"bool"},{"name":"reward","type":"uint256","internalType":"uint256"},{"name":"airdropTriggered","type":"bool","internalType":"bool"},{"name":"airdropReward","type":"uint256","internalType":"uint256"}],"stateMutability":"payable"},{"type":"function","name":"isSessionKeyValid","inputs":[{"name":"sessionKey","type":"address","internalType":"address"}],"outputs":[{"name":"","type":"bool","internalType":"bool"}],"stateMutability":"view"},{"type":"function","name":"nonces","inputs":[{"name":"","type":"address","internalType":"address"}],"outputs":[{"name":"","type":"uint256","internalType":"uint256"}],"stateMutability":"view"},{"type":"function","name":"owner","inputs":[],"outputs":[{"name":"","type":"address","internalType":"address"}],"stateMutability":"view"},{"type":"function","name":"relayer","inputs":[],"outputs":[{"name":"","type":"address","internalType":"address"}],"stateMutability":"view"},{"type":"function","name":"revokeSessionKey","inputs":[{"name":"sessionKey","type":"address","internalType":"address"}],"outputs":[],"stateMutability":"nonpayable"},{"type":"function","name":"sessions","inputs":[{"name":"","type":"address","internalType":"address"}],"outputs":[{"name":"owner","type":"address","internalType":"address"},{"name":"expiresAt","type":"uint256","internalType":"uint256"}],"stateMutability":"view"},{"type":"function","name":"setRelayer","inputs":[{"name":"_relayer","type":"address","internalType":"address"}],"outputs":[],"stateMutability":"nonpayable"},{"type":"event","name":"AirdropTriggered","inputs":[{"name":"player","type":"address","indexed":true,"internalType":"address"},{"name":"reward","type":"uint256","indexed":false,"internalType":"uint256"},{"name":"blockTxCount","type":"uint256","indexed":false,"internalType":"uint256"}],"anonymous":false},{"type":"event","name":"HuntResult","inputs":[{"name":"player","type":"address","indexed":true,"internalType":"address"},{"name":"memeId","type":"uint8","indexed":false,"internalType":"uint8"},{"name":"netSize","type":"uint8","indexed":false,"internalType":"uint8"},{"name":"success","type":"bool","indexed":false,"internalType":"bool"},{"name":"reward","type":"uint256","indexed":false,"internalType":"uint256"},{"name":"cost","type":"uint256","indexed":false,"internalType":"uint256"}],"anonymous":false},{"type":"event","name":"PoolDeposited","inputs":[{"name":"depositor","type":"address","indexed":true,"internalType":"address"},{"name":"amount","type":"uint256","indexed":false,"internalType":"uint256"}],"anonymous":false},{"type":"event","name":"RelayerUpdated","inputs":[{"name":"oldRelayer","type":"address","indexed":true,"internalType":"address"},{"name":"newRelayer","type":"address","indexed":true,"internalType":"address"}],"anonymous":false},{"type":"event","name":"SessionKeyAuthorized","inputs":[{"name":"owner","type":"address","indexed":true,"internalType":"address"},{"name":"sessionKey","type":"address","indexed":true,"internalType":"address"},{"name":"expiresAt","type":"uint256","indexed":false,"internalType":"uint256"}],"anonymous":false},{"type":"event","name":"SessionKeyRevoked","inputs":[{"name":"owner","type":"address","indexed":true,"internalType":"address"},{"name":"sessionKey","type":"address","indexed":true,"internalType":"address"}],"anonymous":false}],"bytecode":{"object":"0x6080346100b557601f6112b138819003918201601f19168301916001600160401b038311848410176100b9578084926020946040528339810103126100b557516001600160a01b038116908190036100b557801561007e5760018060a01b031933815f5416175f5560015416176001556040516111e390816100ce8239f35b60405162461bcd60e51b815260206004820152600f60248201526e24b73b30b634b2103932b630bcb2b960891b6044820152606490fd5b5f80fd5b634e487b7160e01b5f52604160045260245ffdfe6080806040526004361015610048575b50361561001a575f80fd5b6040513481527f90576f1ad407b163ccea052b2d55bac158025af10ac5895369e8956eeab8343460203392a2005b5f3560e01c9081632434dffa14610eca575080632d0335ab14610d33578063431a1b9714610e86578063479dafbe14610e5c5780636548e9bc14610dae5780636a060ef114610d8c5780636fa5e7e514610d6b57806377949cee14610a0057806378f8542b14610a005780637ecebe0014610d335780638406c07914610d0b57806384f4fc6a14610c5f5780638660a82514610c3d5780638a29ab0214610c225780638da5cb5b14610bfb5780638e07b67614610bda57806390fc25e114610193578063a8a3221e14610bbf578063a8c128ad14610b52578063a9c04b2d14610a20578063abd70aa214610a05578063b7be7da014610a00578063cb1a41f8146102a9578063cd8cd4ad1461028c578063dc11728214610271578063eed63dfb14610244578063f64ab83714610223578063f9faa104146101985763ff21f93714610193575f61000f565b610f27565b5f36600319011261021f576101b760018060a01b035f54163314610f42565b34156101eb576040513481527f90576f1ad407b163ccea052b2d55bac158025af10ac5895369e8956eeab8343460203392a2005b60405162461bcd60e51b815260206004820152600c60248201526b16995c9bc819195c1bdcda5d60a21b6044820152606490fd5b5f80fd5b3461021f575f36600319011261021f5760206040516611c37937e080008152f35b3461021f57602036600319011261021f576020610267610262610ef0565b610fce565b6040519015158152f35b3461021f575f36600319011261021f57602060405160038152f35b3461021f575f36600319011261021f576020604051620151808152f35b60a036600319011261021f576102bd610ef0565b60ff602435166024350361021f5760ff604435166044350361021f5767ffffffffffffffff6084351161021f5736602360843501121561021f5767ffffffffffffffff608435600401351161021f573660246084356004013560843501011161021f576001546001600160a01b031633036109cd575f808061033e84610fce565b156109885760018060a01b0384165f52600260205260405f20549360018060a01b0385165f52600360205260643560405f205403610953576001600160a01b0385165f908152600360205260409020805461039890611016565b905560405160ff60243516602082015260ff6044351660408201526064356060820152606081526103c881610f96565b60208151910120604051907f19457468657265756d205369676e6564204d6573736167653a0a3332000000006020830152603c820152603c815280606081011067ffffffffffffffff60608301111761093f57606081016040528051602082012090604160843560040135036108f95750606460843501355f1a90601b82106108e7575b601b60ff83161480156108da575b1561089f5760805f9160ff602094604051928352168482015260246084350135604082015260446084350135606082015282805260015afa15610654575f516001600160a01b03918216911603610866576104b6604435611024565b9283341061082a5783600a810204600a1484151715610668576064600a850204801580156107fc575b5050435f52600460205260405f206104f78154611016565b9055610504604435611129565b600560ff6024351602908160ff8116036106685760ff169060ff811682115f146107f25760ff8082168303116106685760ff169003935b606460405160208101904282524460408201526001600160601b03198960601b16606082015282356074820152631a1d5b9d60e21b60948201526078815261058281610fb2565b519020069560ff8616871061076f575b60405160ff60243516815260ff60443516602082015260ff8716881060408201528360608201528260808201527f094369ecb4ddaa067686c3bba58d99f6705b5b582ce4349d4ec030c9527227a660a0600180821b03841692a2435f526004602052600360405f2054101561067c575b5080341161062c575b5060809460ff60405195161184526020840152151560408301526060820152f35b80340390348211610668575f80809381938290341461065f575b3390f115610654578561060b565b6040513d5f823e3d90fd5b506108fc610646565b634e487b7160e01b5f52601160045260245ffd5b6014606460405160208101904282524460408201526001600160601b03198560601b1660608201528235607482015266061697264726f760cc1b6094820152607b81526106c881610fb2565b5190200610156106025793506106dc611149565b938447101580610766575b156106025760019350845f811561075d575b5f918291829182916001600160a01b03871690f11561065457435f5260046020527f8c39ea0d52c00d579184e8070640104228f1a618d77e55429e09cfbb049c2dc16040805f205492815193888552602085015260018060a01b031692a286610602565b506108fc6106f9565b508415156106e7565b915061077c602435611097565b918247106107b957825f81156107b0575b5f918291829182916001600160a01b03871690f1610592576040513d5f823e3d90fd5b506108fc61078d565b60405162461bcd60e51b8152602060048201526011602482015270141bdbdb081a5b9cdd59999a58da595b9d607a1b6044820152606490fd5b5050600a9361053b565b5f808093819360018060a01b03835416908390610821575bf1156106545785806104df565b506108fc610814565b60405162461bcd60e51b8152602060048201526014602482015273125b9cdd59999a58da595b9d081c185e5b595b9d60621b6044820152606490fd5b60405162461bcd60e51b8152602060048201526011602482015270496e76616c6964207369676e617475726560781b6044820152606490fd5b60405162461bcd60e51b815260206004820152601360248201527224b73b30b634b21039b4b3b730ba3ab932903b60691b6044820152606490fd5b50601c60ff83161461045a565b90601b0160ff8111610668579061044c565b606060649162461bcd60e51b82820152602083820152601860848201527f496e76616c6964207369676e6174757265206c656e677468000000000000000060a482015201fd5b634e487b7160e01b5f52604160045260245ffd5b60405162461bcd60e51b815260206004820152600d60248201526c496e76616c6964206e6f6e636560981b6044820152606490fd5b60405162461bcd60e51b815260206004820152601e60248201527f496e76616c6964206f7220657870697265642073657373696f6e206b657900006044820152606490fd5b60405162461bcd60e51b815260206004820152600b60248201526a2737ba103932b630bcb2b960a91b6044820152606490fd5b610f06565b3461021f575f36600319011261021f57602047604051908152f35b3461021f57604036600319011261021f57610a39610ef0565b6001600160a01b03908116906024358215610b175780151580610b0a575b15610ad25742019081421161066857600160405191610a7583610f7a565b3383526020830190848252855f52600260205260405f209351166001600160601b0360a01b845416178355519101556040519081527fbe3b303cdddf6e290620263440af91da6a4d135c2a3ceb1673323b777cea932060203392a3005b60405162461bcd60e51b815260206004820152601060248201526f24b73b30b634b210323ab930ba34b7b760811b6044820152606490fd5b5062015180811115610a57565b60405162461bcd60e51b8152602060048201526013602482015272496e76616c69642073657373696f6e206b657960681b6044820152606490fd5b3461021f57602036600319011261021f576060610b6d610ef0565b6020610baa60018060a01b03928381165f526002835260405f2093600160405191610b9783610f7a565b8654169586835201549384910152610fce565b90604051928352602083015215156040820152f35b3461021f575f36600319011261021f576020604051600a8152f35b3461021f575f36600319011261021f57602060405166b1a2bc2ec500008152f35b3461021f575f36600319011261021f575f546040516001600160a01b039091168152602090f35b3461021f575f36600319011261021f57602060405160058152f35b3461021f575f36600319011261021f5760206040516706f05b59d3b200008152f35b3461021f57602036600319011261021f576001600160a01b0380610c81610ef0565b1690815f52600260205260405f2054163303610cd257805f5260026020525f6001604082208281550155337f744157ccffbd293a2e8644928cd7d23d650f869b88f72d7bfea8041b76ca6bec5f80a3005b60405162461bcd60e51b81526020600482015260116024820152702737ba1039b2b9b9b4b7b71037bbb732b960791b6044820152606490fd5b3461021f575f36600319011261021f576001546040516001600160a01b039091168152602090f35b3461021f57602036600319011261021f576001600160a01b03610d54610ef0565b165f526003602052602060405f2054604051908152f35b3461021f575f36600319011261021f576020604051662386f26fc100008152f35b3461021f575f36600319011261021f576020604051670214e8348c4f00008152f35b3461021f57602036600319011261021f57610dc7610ef0565b5f546001600160a01b03918291610de19083163314610f42565b16908115610e2557600154826001600160601b0360a01b821617600155167f605ca4e43489fb38b91aa63dd9147cd3847957694b080b9285ec898b34269f0c5f80a3005b60405162461bcd60e51b815260206004820152600f60248201526e24b73b30b634b2103932b630bcb2b960891b6044820152606490fd5b3461021f57602036600319011261021f576004355f526004602052602060405f2054604051908152f35b3461021f57602036600319011261021f5760406001600160a01b0380610eaa610ef0565b165f5260026020526001825f209182541691015482519182526020820152f35b3461021f57602036600319011261021f576020906004355f526004825260405f20548152f35b600435906001600160a01b038216820361021f57565b3461021f575f36600319011261021f57602060405166470de4df8200008152f35b3461021f575f36600319011261021f57602060405160148152f35b15610f4957565b60405162461bcd60e51b81526020600482015260096024820152682737ba1037bbb732b960b91b6044820152606490fd5b6040810190811067ffffffffffffffff82111761093f57604052565b6080810190811067ffffffffffffffff82111761093f57604052565b60a0810190811067ffffffffffffffff82111761093f57604052565b60209060018060a01b038091165f526002825260405f2090600160405191610ff583610f7a565b83541692838352015492839101521515908161100f575090565b9050421090565b5f1981146106685760010190565b60ff16801561108b576001811461107f576002146110745760405162461bcd60e51b815260206004820152601060248201526f496e76616c6964206e65742073697a6560801b6044820152606490fd5b66470de4df82000090565b50662386f26fc1000090565b506611c37937e0800090565b60ff166001811461111d576002811461111d57600381146111115760048114611104576005146110f85760405162461bcd60e51b815260206004820152600f60248201526e125b9d985b1a59081b595b59481251608a1b6044820152606490fd5b6706f05b59d3b2000090565b50670214e8348c4f000090565b5066b1a2bc2ec5000090565b5066470de4df82000090565b60ff1680156111435760011461113e57602890565b603290565b50603c90565b4780156111a857600f60405160208101904282524460408201526d185a5c991c9bdc17d85b5bdd5b9d60921b6060820152604e815261118781610f96565b51902016600501806005116106685780820291820403610668576064900490565b505f9056fea26469706673582212201f6a03afc4435155efbdc78ef718d5fa86d4c0d45afc97c1c4f8bfe585eceee664736f6c63430008140033","linkReferences":{}},"methodIdentifiers":{"AIRDROP_CHANCE()":"ff21f937","CONCURRENT_THRESHOLD()":"dc117282","MAX_AIRDROP_PERCENT()":"90fc25e1","MAX_SESSION_DURATION()":"cd8cd4ad","MIN_AIRDROP_PERCENT()":"8a29ab02","NET_COST_LARGE()":"b7be7da0","NET_COST_MEDIUM()":"6fa5e7e5","NET_COST_SMALL()":"f64ab837","OWNER_FEE_PERCENT()":"a8a3221e","REWARD_DIAMOND()":"6a060ef1","REWARD_DOGE()":"78f8542b","REWARD_FOX()":"8e07b676","REWARD_PEPE()":"77949cee","REWARD_ROCKET()":"8660a825","authorizeSessionKey(address,uint256)":"a9c04b2d","blockTxCount(uint256)":"479dafbe","depositToPool()":"f9faa104","getBlockTxCount(uint256)":"2434dffa","getNonce(address)":"2d0335ab","getPoolBalance()":"abd70aa2","getSessionInfo(address)":"a8c128ad","huntWithSession(address,uint8,uint8,uint256,bytes)":"cb1a41f8","isSessionKeyValid(address)":"eed63dfb","nonces(address)":"7ecebe00","owner()":"8da5cb5b","relayer()":"8406c079","revokeSessionKey(address)":"84f4fc6a","sessions(address)":"431a1b97","setRelayer(address)":"6548e9bc"},"id":22}